{
  "address": "0x1EC8Ef634762197107CB834f0Ae90160ADD20363",
  "abi": [
    {
      "inputs": [],
      "stateMutability": "nonpayable",
      "type": "constructor"
    },
    {
      "anonymous": false,
      "inputs": [
        {
          "indexed": true,
          "internalType": "address",
          "name": "owner",
          "type": "address"
        },
        {
          "indexed": true,
          "internalType": "address",
          "name": "spender",
          "type": "address"
        },
        {
          "indexed": false,
          "internalType": "uint256",
          "name": "value",
          "type": "uint256"
        }
      ],
      "name": "Approval",
      "type": "event"
    },
    {
      "anonymous": false,
      "inputs": [
        {
          "indexed": true,
          "internalType": "address",
          "name": "from",
          "type": "address"
        },
        {
          "indexed": true,
          "internalType": "address",
          "name": "to",
          "type": "address"
        },
        {
          "indexed": false,
          "internalType": "uint256",
          "name": "value",
          "type": "uint256"
        }
      ],
      "name": "Transfer",
      "type": "event"
    },
    {
      "inputs": [
        {
          "internalType": "address",
          "name": "tokenowner",
          "type": "address"
        },
        {
          "internalType": "address",
          "name": "spender",
          "type": "address"
        }
      ],
      "name": "allowance",
      "outputs": [
        {
          "internalType": "uint256",
          "name": "",
          "type": "uint256"
        }
      ],
      "stateMutability": "view",
      "type": "function"
    },
    {
      "inputs": [
        {
          "internalType": "address",
          "name": "spender",
          "type": "address"
        },
        {
          "internalType": "uint256",
          "name": "value",
          "type": "uint256"
        }
      ],
      "name": "approve",
      "outputs": [
        {
          "internalType": "bool",
          "name": "",
          "type": "bool"
        }
      ],
      "stateMutability": "nonpayable",
      "type": "function"
    },
    {
      "inputs": [
        {
          "internalType": "address",
          "name": "account",
          "type": "address"
        }
      ],
      "name": "balanceOf",
      "outputs": [
        {
          "internalType": "uint256",
          "name": "",
          "type": "uint256"
        }
      ],
      "stateMutability": "view",
      "type": "function"
    },
    {
      "inputs": [
        {
          "internalType": "uint256",
          "name": "value",
          "type": "uint256"
        }
      ],
      "name": "burn",
      "outputs": [],
      "stateMutability": "nonpayable",
      "type": "function"
    },
    {
      "inputs": [
        {
          "internalType": "address",
          "name": "from",
          "type": "address"
        },
        {
          "internalType": "uint256",
          "name": "value",
          "type": "uint256"
        }
      ],
      "name": "burnFrom",
      "outputs": [],
      "stateMutability": "nonpayable",
      "type": "function"
    },
    {
      "inputs": [],
      "name": "decimals",
      "outputs": [
        {
          "internalType": "uint8",
          "name": "",
          "type": "uint8"
        }
      ],
      "stateMutability": "view",
      "type": "function"
    },
    {
      "inputs": [
        {
          "internalType": "address",
          "name": "to",
          "type": "address"
        },
        {
          "internalType": "uint256",
          "name": "value",
          "type": "uint256"
        }
      ],
      "name": "mint",
      "outputs": [],
      "stateMutability": "nonpayable",
      "type": "function"
    },
    {
      "inputs": [],
      "name": "name",
      "outputs": [
        {
          "internalType": "string",
          "name": "",
          "type": "string"
        }
      ],
      "stateMutability": "view",
      "type": "function"
    },
    {
      "inputs": [],
      "name": "owner",
      "outputs": [
        {
          "internalType": "address",
          "name": "",
          "type": "address"
        }
      ],
      "stateMutability": "view",
      "type": "function"
    },
    {
      "inputs": [],
      "name": "symbol",
      "outputs": [
        {
          "internalType": "string",
          "name": "",
          "type": "string"
        }
      ],
      "stateMutability": "view",
      "type": "function"
    },
    {
      "inputs": [],
      "name": "totalSupply",
      "outputs": [
        {
          "internalType": "uint256",
          "name": "",
          "type": "uint256"
        }
      ],
      "stateMutability": "view",
      "type": "function"
    },
    {
      "inputs": [
        {
          "internalType": "address",
          "name": "to",
          "type": "address"
        },
        {
          "internalType": "uint256",
          "name": "value",
          "type": "uint256"
        }
      ],
      "name": "transfer",
      "outputs": [
        {
          "internalType": "bool",
          "name": "",
          "type": "bool"
        }
      ],
      "stateMutability": "nonpayable",
      "type": "function"
    },
    {
      "inputs": [
        {
          "internalType": "address",
          "name": "from",
          "type": "address"
        },
        {
          "internalType": "address",
          "name": "to",
          "type": "address"
        },
        {
          "internalType": "uint256",
          "name": "value",
          "type": "uint256"
        }
      ],
      "name": "transferFrom",
      "outputs": [
        {
          "internalType": "bool",
          "name": "",
          "type": "bool"
        }
      ],
      "stateMutability": "nonpayable",
      "type": "function"
    },
    {
      "inputs": [
        {
          "internalType": "address",
          "name": "newOwner",
          "type": "address"
        }
      ],
      "name": "transferOwnership",
      "outputs": [],
      "stateMutability": "nonpayable",
      "type": "function"
    }
  ],
  "transactionHash": "0xea64e75eeb7a60fd827ee5b2ccefde9f0111f0e114c22407009f8b74af1d05dd",
  "args": [],
  "numDeployments": 1,
  "solcInputHash": "1a6d51d7379a15c7fc31d4c1e18fdc49",
  "bytecode": "0x60806040523480156200001157600080fd5b50604080518082019091526008815267262ca1aa37b5b2b760c11b602082015260039062000040908262000130565b50604080518082019091526002815261594360f01b602082015260049062000069908262000130565b506005805433610100026001600160a81b0319909116176012179055620001fc565b634e487b7160e01b600052604160045260246000fd5b600181811c90821680620000b657607f821691505b602082108103620000d757634e487b7160e01b600052602260045260246000fd5b50919050565b601f8211156200012b57600081815260208120601f850160051c81016020861015620001065750805b601f850160051c820191505b81811015620001275782815560010162000112565b5050505b505050565b81516001600160401b038111156200014c576200014c6200008b565b62000164816200015d8454620000a1565b84620000dd565b602080601f8311600181146200019c5760008415620001835750858301515b600019600386901b1c1916600185901b17855562000127565b600085815260208120601f198616915b82811015620001cd57888601518255948401946001909101908401620001ac565b5085821015620001ec5787850151600019600388901b60f8161c191681555b5050505050600190811b01905550565b610c29806200020c6000396000f3fe608060405234801561001057600080fd5b50600436106100ea5760003560e01c806370a082311161008c57806395d89b411161006657806395d89b41146101f7578063a9059cbb146101ff578063dd62ed3e14610212578063f2fde38b1461024b57600080fd5b806370a082311461019257806379cc6790146101bb5780638da5cb5b146101ce57600080fd5b806323b872dd116100c857806323b872dd14610142578063313ce5671461015557806340c10f191461016a57806342966c681461017f57600080fd5b806306fdde03146100ef578063095ea7b31461010d57806318160ddd14610130575b600080fd5b6100f761025e565b6040516101049190610a5a565b60405180910390f35b61012061011b366004610ac4565b6102f0565b6040519015158152602001610104565b6002545b604051908152602001610104565b610120610150366004610aee565b61030a565b60055460405160ff9091168152602001610104565b61017d610178366004610ac4565b61032e565b005b61017d61018d366004610b2a565b6103a0565b6101346101a0366004610b43565b6001600160a01b031660009081526020819052604090205490565b61017d6101c9366004610ac4565b6103ad565b60055461010090046001600160a01b03166040516001600160a01b039091168152602001610104565b6100f76103c2565b61012061020d366004610ac4565b6103d1565b610134610220366004610b65565b6001600160a01b03918216600090815260016020908152604080832093909416825291909152205490565b61017d610259366004610b43565b6103df565b60606003805461026d90610b98565b80601f016020809104026020016040519081016040528092919081815260200182805461029990610b98565b80156102e65780601f106102bb576101008083540402835291602001916102e6565b820191906000526020600020905b8154815290600101906020018083116102c957829003601f168201915b5050505050905090565b6000336102fe8185856104e2565b60019150505b92915050565b600033610318858285610610565b6103238585856106ac565b506001949350505050565b60055461010090046001600160a01b031633146103925760405162461bcd60e51b815260206004820152601e60248201527f4552433230546573743a204f6e6c79206f776e65722063616e206d696e74000060448201526064015b60405180910390fd5b61039c828261085d565b5050565b6103aa3382610928565b50565b6103b8823383610610565b61039c8282610928565b60606004805461026d90610b98565b6000336102fe8185856106ac565b60055461010090046001600160a01b031633146104535760405162461bcd60e51b815260206004820152602c60248201527f4552433230546573743a204f6e6c79206f776e65722063616e207472616e736660448201526b06572206f776e6572736869760a41b6064820152608401610389565b6001600160a01b0381166104ba5760405162461bcd60e51b815260206004820152602860248201527f4552433230546573743a204e6577206f776e657220697320746865207a65726f604482015267206164647265737360c01b6064820152608401610389565b600580546001600160a01b0390921661010002610100600160a81b0319909216919091179055565b6001600160a01b0383166105495760405162461bcd60e51b815260206004820152602860248201527f4552433230546573743a20617070726f76652066726f6d20746865207a65726f604482015267206164647265737360c01b6064820152608401610389565b6001600160a01b0382166105ae5760405162461bcd60e51b815260206004820152602660248201527f4552433230546573743a20617070726f766520746f20746865207a65726f206160448201526564647265737360d01b6064820152608401610389565b6001600160a01b0383811660008181526001602090815260408083209487168084529482529182902085905590518481527f8c5be1e5ebec7d5bd14f71427d1e84f3dd0314c0f7b2291e5b200ac8c7c3b92591015b60405180910390a3505050565b6001600160a01b0383811660009081526001602090815260408083209386168352929052205460001981146106a657818110156106995760405162461bcd60e51b815260206004820152602160248201527f4552433230546573743a20696e73756666696369656e7420616c6c6f77616e636044820152606560f81b6064820152608401610389565b6106a684848484036104e2565b50505050565b6001600160a01b0383166107145760405162461bcd60e51b815260206004820152602960248201527f4552433230546573743a207472616e736665722066726f6d20746865207a65726044820152686f206164647265737360b81b6064820152608401610389565b6001600160a01b03821661077a5760405162461bcd60e51b815260206004820152602760248201527f4552433230546573743a207472616e7366657220746f20746865207a65726f206044820152666164647265737360c81b6064820152608401610389565b6001600160a01b038316600090815260208190526040902054818110156107f65760405162461bcd60e51b815260206004820152602a60248201527f4552433230546573743a207472616e7366657220616d6f756e7420657863656560448201526964732062616c616e636560b01b6064820152608401610389565b6001600160a01b03848116600081815260208181526040808320878703905593871680835291849020805487019055925185815290927fddf252ad1be2c89b69c2b068fc378daa952ba7f163c4a11628f55a4df523b3ef910160405180910390a350505050565b6001600160a01b0382166108bf5760405162461bcd60e51b815260206004820152602360248201527f4552433230546573743a206d696e7420746f20746865207a65726f206164647260448201526265737360e81b6064820152608401610389565b80600260008282546108d19190610bd2565b90915550506001600160a01b038216600081815260208181526040808320805486019055518481527fddf252ad1be2c89b69c2b068fc378daa952ba7f163c4a11628f55a4df523b3ef910160405180910390a35050565b6001600160a01b03821661098c5760405162461bcd60e51b815260206004820152602560248201527f4552433230546573743a206275726e2066726f6d20746865207a65726f206164604482015264647265737360d81b6064820152608401610389565b6001600160a01b03821660009081526020819052604090205481811015610a045760405162461bcd60e51b815260206004820152602660248201527f4552433230546573743a206275726e20616d6f756e7420657863656564732062604482015265616c616e636560d01b6064820152608401610389565b6001600160a01b0383166000818152602081815260408083208686039055600280548790039055518581529192917fddf252ad1be2c89b69c2b068fc378daa952ba7f163c4a11628f55a4df523b3ef9101610603565b600060208083528351808285015260005b81811015610a8757858101830151858201604001528201610a6b565b506000604082860101526040601f19601f8301168501019250505092915050565b80356001600160a01b0381168114610abf57600080fd5b919050565b60008060408385031215610ad757600080fd5b610ae083610aa8565b946020939093013593505050565b600080600060608486031215610b0357600080fd5b610b0c84610aa8565b9250610b1a60208501610aa8565b9150604084013590509250925092565b600060208284031215610b3c57600080fd5b5035919050565b600060208284031215610b5557600080fd5b610b5e82610aa8565b9392505050565b60008060408385031215610b7857600080fd5b610b8183610aa8565b9150610b8f60208401610aa8565b90509250929050565b600181811c90821680610bac57607f821691505b602082108103610bcc57634e487b7160e01b600052602260045260246000fd5b50919050565b8082018082111561030457634e487b7160e01b600052601160045260246000fdfea26469706673582212200a0f0b31ccc4d013a16e0e9f3a3b28237f934a874640dd96a7ae3993875cfaa364736f6c63430008140033",
  "devdoc": {
    "kind": "dev",
    "methods": {
      "approve(address,uint256)": {
        "details": "授权其他地址使用代币",
        "params": {
          "spender": "被授权地址",
          "value": "授权数量"
        }
      },
      "burn(uint256)": {
        "details": "销毁函数 - 用户可以销毁自己拥有的代币",
        "params": {
          "value": "销毁数量"
        }
      },
      "burnFrom(address,uint256)": {
        "details": "从指定地址销毁代币 - 需要授权",
        "params": {
          "from": "销毁代币的地址",
          "value": "销毁数量"
        }
      },
      "mint(address,uint256)": {
        "details": "铸币函数 - 只有合约所有者可以调用",
        "params": {
          "to": "接收代币的地址",
          "value": "铸币数量"
        }
      },
      "owner()": {
        "details": "获取合约所有者"
      },
      "transferOwnership(address)": {
        "details": "转移合约所有权",
        "params": {
          "newOwner": "新的所有者地址"
        }
      }
    },
    "version": 1
  },
  "userdoc": {
    "kind": "user",
    "methods": {},
    "version": 1
  },
  "storageLayout": {
    "storage": [
      {
        "astId": 5,
        "contract": "contracts/MockERC20.sol:ERC20Test",
        "label": "_balances",
        "offset": 0,
        "slot": "0",
        "type": "t_mapping(t_address,t_uint256)"
      },
      {
        "astId": 11,
        "contract": "contracts/MockERC20.sol:ERC20Test",
        "label": "_allowances",
        "offset": 0,
        "slot": "1",
        "type": "t_mapping(t_address,t_mapping(t_address,t_uint256))"
      },
      {
        "astId": 13,
        "contract": "contracts/MockERC20.sol:ERC20Test",
        "label": "_totalSupply",
        "offset": 0,
        "slot": "2",
        "type": "t_uint256"
      },
      {
        "astId": 15,
        "contract": "contracts/MockERC20.sol:ERC20Test",
        "label": "_name",
        "offset": 0,
        "slot": "3",
        "type": "t_string_storage"
      },
      {
        "astId": 17,
        "contract": "contracts/MockERC20.sol:ERC20Test",
        "label": "_symbol",
        "offset": 0,
        "slot": "4",
        "type": "t_string_storage"
      },
      {
        "astId": 19,
        "contract": "contracts/MockERC20.sol:ERC20Test",
        "label": "_decimals",
        "offset": 0,
        "slot": "5",
        "type": "t_uint8"
      },
      {
        "astId": 21,
        "contract": "contracts/MockERC20.sol:ERC20Test",
        "label": "_owner",
        "offset": 1,
        "slot": "5",
        "type": "t_address"
      }
    ],
    "types": {
      "t_address": {
        "encoding": "inplace",
        "label": "address",
        "numberOfBytes": "20"
      },
      "t_mapping(t_address,t_mapping(t_address,t_uint256))": {
        "encoding": "mapping",
        "key": "t_address",
        "label": "mapping(address => mapping(address => uint256))",
        "numberOfBytes": "32",
        "value": "t_mapping(t_address,t_uint256)"
      },
      "t_mapping(t_address,t_uint256)": {
        "encoding": "mapping",
        "key": "t_address",
        "label": "mapping(address => uint256)",
        "numberOfBytes": "32",
        "value": "t_uint256"
      },
      "t_string_storage": {
        "encoding": "bytes",
        "label": "string",
        "numberOfBytes": "32"
      },
      "t_uint256": {
        "encoding": "inplace",
        "label": "uint256",
        "numberOfBytes": "32"
      },
      "t_uint8": {
        "encoding": "inplace",
        "label": "uint8",
        "numberOfBytes": "1"
      }
    }
  }
}